{
  "_format": "hh-sol-artifact-1",
  "contractName": "MetaJetzSparrow977",
  "sourceName": "contracts/MetaJetzSparrow977.sol",
  "abi": [
    {
      "inputs": [
        {
          "internalType": "string",
          "name": "uri",
          "type": "string"
        },
        {
          "internalType": "bytes32",
          "name": "merkleroot",
          "type": "bytes32"
        },
        {
          "internalType": "address",
          "name": "_proxyRegistryAddress",
          "type": "address"
        }
      ],
      "stateMutability": "nonpayable",
      "type": "constructor"
    },
    {
      "anonymous": false,
      "inputs": [
        {
          "indexed": true,
          "internalType": "address",
          "name": "owner",
          "type": "address"
        },
        {
          "indexed": true,
          "internalType": "address",
          "name": "approved",
          "type": "address"
        },
        {
          "indexed": true,
          "internalType": "uint256",
          "name": "tokenId",
          "type": "uint256"
        }
      ],
      "name": "Approval",
      "type": "event"
    },
    {
      "anonymous": false,
      "inputs": [
        {
          "indexed": true,
          "internalType": "address",
          "name": "owner",
          "type": "address"
        },
        {
          "indexed": true,
          "internalType": "address",
          "name": "operator",
          "type": "address"
        },
        {
          "indexed": false,
          "internalType": "bool",
          "name": "approved",
          "type": "bool"
        }
      ],
      "name": "ApprovalForAll",
      "type": "event"
    },
    {
      "anonymous": false,
      "inputs": [
        {
          "indexed": true,
          "internalType": "contract IERC20",
          "name": "token",
          "type": "address"
        },
        {
          "indexed": false,
          "internalType": "address",
          "name": "to",
          "type": "address"
        },
        {
          "indexed": false,
          "internalType": "uint256",
          "name": "amount",
          "type": "uint256"
        }
      ],
      "name": "ERC20PaymentReleased",
      "type": "event"
    },
    {
      "anonymous": false,
      "inputs": [
        {
          "indexed": true,
          "internalType": "address",
          "name": "previousOwner",
          "type": "address"
        },
        {
          "indexed": true,
          "internalType": "address",
          "name": "newOwner",
          "type": "address"
        }
      ],
      "name": "OwnershipTransferred",
      "type": "event"
    },
    {
      "anonymous": false,
      "inputs": [
        {
          "indexed": false,
          "internalType": "address",
          "name": "account",
          "type": "address"
        },
        {
          "indexed": false,
          "internalType": "uint256",
          "name": "shares",
          "type": "uint256"
        }
      ],
      "name": "PayeeAdded",
      "type": "event"
    },
    {
      "anonymous": false,
      "inputs": [
        {
          "indexed": false,
          "internalType": "address",
          "name": "from",
          "type": "address"
        },
        {
          "indexed": false,
          "internalType": "uint256",
          "name": "amount",
          "type": "uint256"
        }
      ],
      "name": "PaymentReceived",
      "type": "event"
    },
    {
      "anonymous": false,
      "inputs": [
        {
          "indexed": false,
          "internalType": "address",
          "name": "to",
          "type": "address"
        },
        {
          "indexed": false,
          "internalType": "uint256",
          "name": "amount",
          "type": "uint256"
        }
      ],
      "name": "PaymentReleased",
      "type": "event"
    },
    {
      "anonymous": false,
      "inputs": [
        {
          "indexed": true,
          "internalType": "address",
          "name": "from",
          "type": "address"
        },
        {
          "indexed": true,
          "internalType": "address",
          "name": "to",
          "type": "address"
        },
        {
          "indexed": true,
          "internalType": "uint256",
          "name": "tokenId",
          "type": "uint256"
        }
      ],
      "name": "Transfer",
      "type": "event"
    },
    {
      "inputs": [
        {
          "internalType": "address",
          "name": "",
          "type": "address"
        }
      ],
      "name": "_presaleClaimed",
      "outputs": [
        {
          "internalType": "uint256",
          "name": "",
          "type": "uint256"
        }
      ],
      "stateMutability": "view",
      "type": "function"
    },
    {
      "inputs": [],
      "name": "_pricePublicSale",
      "outputs": [
        {
          "internalType": "uint256",
          "name": "",
          "type": "uint256"
        }
      ],
      "stateMutability": "view",
      "type": "function"
    },
    {
      "inputs": [],
      "name": "_priceWhiteListSale",
      "outputs": [
        {
          "internalType": "uint256",
          "name": "",
          "type": "uint256"
        }
      ],
      "stateMutability": "view",
      "type": "function"
    },
    {
      "inputs": [
        {
          "internalType": "address",
          "name": "to",
          "type": "address"
        },
        {
          "internalType": "uint256",
          "name": "tokenId",
          "type": "uint256"
        }
      ],
      "name": "approve",
      "outputs": [],
      "stateMutability": "nonpayable",
      "type": "function"
    },
    {
      "inputs": [
        {
          "internalType": "address",
          "name": "owner",
          "type": "address"
        }
      ],
      "name": "balanceOf",
      "outputs": [
        {
          "internalType": "uint256",
          "name": "",
          "type": "uint256"
        }
      ],
      "stateMutability": "view",
      "type": "function"
    },
    {
      "inputs": [],
      "name": "baseExtension",
      "outputs": [
        {
          "internalType": "string",
          "name": "",
          "type": "string"
        }
      ],
      "stateMutability": "view",
      "type": "function"
    },
    {
      "inputs": [],
      "name": "baseURI",
      "outputs": [
        {
          "internalType": "string",
          "name": "",
          "type": "string"
        }
      ],
      "stateMutability": "view",
      "type": "function"
    },
    {
      "inputs": [
        {
          "internalType": "uint256",
          "name": "newOwnerMaxSupply",
          "type": "uint256"
        }
      ],
      "name": "changeOwnerMintAmount",
      "outputs": [],
      "stateMutability": "nonpayable",
      "type": "function"
    },
    {
      "inputs": [
        {
          "internalType": "uint256",
          "name": "newAmount",
          "type": "uint256"
        }
      ],
      "name": "changePreSaleMintLimit",
      "outputs": [],
      "stateMutability": "nonpayable",
      "type": "function"
    },
    {
      "inputs": [
        {
          "internalType": "uint256",
          "name": "newPrice",
          "type": "uint256"
        }
      ],
      "name": "changePreSalePrice",
      "outputs": [],
      "stateMutability": "nonpayable",
      "type": "function"
    },
    {
      "inputs": [
        {
          "internalType": "uint256",
          "name": "newAmount",
          "type": "uint256"
        }
      ],
      "name": "changePublicSaleMintLimit",
      "outputs": [],
      "stateMutability": "nonpayable",
      "type": "function"
    },
    {
      "inputs": [
        {
          "internalType": "uint256",
          "name": "newPrice",
          "type": "uint256"
        }
      ],
      "name": "changePublicSalePrice",
      "outputs": [],
      "stateMutability": "nonpayable",
      "type": "function"
    },
    {
      "inputs": [
        {
          "internalType": "uint256",
          "name": "tokenId",
          "type": "uint256"
        }
      ],
      "name": "getApproved",
      "outputs": [
        {
          "internalType": "address",
          "name": "",
          "type": "address"
        }
      ],
      "stateMutability": "view",
      "type": "function"
    },
    {
      "inputs": [
        {
          "internalType": "address",
          "name": "owner",
          "type": "address"
        },
        {
          "internalType": "address",
          "name": "operator",
          "type": "address"
        }
      ],
      "name": "isApprovedForAll",
      "outputs": [
        {
          "internalType": "bool",
          "name": "",
          "type": "bool"
        }
      ],
      "stateMutability": "view",
      "type": "function"
    },
    {
      "inputs": [],
      "name": "maxSupply",
      "outputs": [
        {
          "internalType": "uint256",
          "name": "",
          "type": "uint256"
        }
      ],
      "stateMutability": "view",
      "type": "function"
    },
    {
      "inputs": [
        {
          "internalType": "uint256",
          "name": "_amount",
          "type": "uint256"
        }
      ],
      "name": "mintOwner",
      "outputs": [],
      "stateMutability": "payable",
      "type": "function"
    },
    {
      "inputs": [],
      "name": "name",
      "outputs": [
        {
          "internalType": "string",
          "name": "",
          "type": "string"
        }
      ],
      "stateMutability": "view",
      "type": "function"
    },
    {
      "inputs": [],
      "name": "notRevealedUriBase",
      "outputs": [
        {
          "internalType": "string",
          "name": "",
          "type": "string"
        }
      ],
      "stateMutability": "view",
      "type": "function"
    },
    {
      "inputs": [],
      "name": "owner",
      "outputs": [
        {
          "internalType": "address",
          "name": "",
          "type": "address"
        }
      ],
      "stateMutability": "view",
      "type": "function"
    },
    {
      "inputs": [],
      "name": "ownerMaxSupply",
      "outputs": [
        {
          "internalType": "uint256",
          "name": "",
          "type": "uint256"
        }
      ],
      "stateMutability": "view",
      "type": "function"
    },
    {
      "inputs": [
        {
          "internalType": "uint256",
          "name": "tokenId",
          "type": "uint256"
        }
      ],
      "name": "ownerOf",
      "outputs": [
        {
          "internalType": "address",
          "name": "",
          "type": "address"
        }
      ],
      "stateMutability": "view",
      "type": "function"
    },
    {
      "inputs": [],
      "name": "paused",
      "outputs": [
        {
          "internalType": "bool",
          "name": "",
          "type": "bool"
        }
      ],
      "stateMutability": "view",
      "type": "function"
    },
    {
      "inputs": [
        {
          "internalType": "uint256",
          "name": "index",
          "type": "uint256"
        }
      ],
      "name": "payee",
      "outputs": [
        {
          "internalType": "address",
          "name": "",
          "type": "address"
        }
      ],
      "stateMutability": "view",
      "type": "function"
    },
    {
      "inputs": [],
      "name": "presaleAmountLimit",
      "outputs": [
        {
          "internalType": "uint256",
          "name": "",
          "type": "uint256"
        }
      ],
      "stateMutability": "view",
      "type": "function"
    },
    {
      "inputs": [],
      "name": "presaleM",
      "outputs": [
        {
          "internalType": "bool",
          "name": "",
          "type": "bool"
        }
      ],
      "stateMutability": "view",
      "type": "function"
    },
    {
      "inputs": [
        {
          "internalType": "address",
          "name": "account",
          "type": "address"
        },
        {
          "internalType": "uint256",
          "name": "_amount",
          "type": "uint256"
        },
        {
          "internalType": "bytes32[]",
          "name": "_proof",
          "type": "bytes32[]"
        }
      ],
      "name": "presaleMint",
      "outputs": [],
      "stateMutability": "payable",
      "type": "function"
    },
    {
      "inputs": [],
      "name": "publicM",
      "outputs": [
        {
          "internalType": "bool",
          "name": "",
          "type": "bool"
        }
      ],
      "stateMutability": "view",
      "type": "function"
    },
    {
      "inputs": [],
      "name": "publicSaleAmountLimit",
      "outputs": [
        {
          "internalType": "uint256",
          "name": "",
          "type": "uint256"
        }
      ],
      "stateMutability": "view",
      "type": "function"
    },
    {
      "inputs": [
        {
          "internalType": "uint256",
          "name": "_amount",
          "type": "uint256"
        }
      ],
      "name": "publicSaleMint",
      "outputs": [],
      "stateMutability": "payable",
      "type": "function"
    },
    {
      "inputs": [
        {
          "internalType": "address",
          "name": "account",
          "type": "address"
        }
      ],
      "name": "releasable",
      "outputs": [
        {
          "internalType": "uint256",
          "name": "",
          "type": "uint256"
        }
      ],
      "stateMutability": "view",
      "type": "function"
    },
    {
      "inputs": [
        {
          "internalType": "contract IERC20",
          "name": "token",
          "type": "address"
        },
        {
          "internalType": "address",
          "name": "account",
          "type": "address"
        }
      ],
      "name": "releasable",
      "outputs": [
        {
          "internalType": "uint256",
          "name": "",
          "type": "uint256"
        }
      ],
      "stateMutability": "view",
      "type": "function"
    },
    {
      "inputs": [
        {
          "internalType": "address payable",
          "name": "account",
          "type": "address"
        }
      ],
      "name": "release",
      "outputs": [],
      "stateMutability": "nonpayable",
      "type": "function"
    },
    {
      "inputs": [
        {
          "internalType": "contract IERC20",
          "name": "token",
          "type": "address"
        },
        {
          "internalType": "address",
          "name": "account",
          "type": "address"
        }
      ],
      "name": "release",
      "outputs": [],
      "stateMutability": "nonpayable",
      "type": "function"
    },
    {
      "inputs": [
        {
          "internalType": "contract IERC20",
          "name": "token",
          "type": "address"
        },
        {
          "internalType": "address",
          "name": "account",
          "type": "address"
        }
      ],
      "name": "released",
      "outputs": [
        {
          "internalType": "uint256",
          "name": "",
          "type": "uint256"
        }
      ],
      "stateMutability": "view",
      "type": "function"
    },
    {
      "inputs": [
        {
          "internalType": "address",
          "name": "account",
          "type": "address"
        }
      ],
      "name": "released",
      "outputs": [
        {
          "internalType": "uint256",
          "name": "",
          "type": "uint256"
        }
      ],
      "stateMutability": "view",
      "type": "function"
    },
    {
      "inputs": [],
      "name": "renounceOwnership",
      "outputs": [],
      "stateMutability": "nonpayable",
      "type": "function"
    },
    {
      "inputs": [],
      "name": "reveal",
      "outputs": [],
      "stateMutability": "nonpayable",
      "type": "function"
    },
    {
      "inputs": [],
      "name": "revealed",
      "outputs": [
        {
          "internalType": "bool",
          "name": "",
          "type": "bool"
        }
      ],
      "stateMutability": "view",
      "type": "function"
    },
    {
      "inputs": [],
      "name": "root",
      "outputs": [
        {
          "internalType": "bytes32",
          "name": "",
          "type": "bytes32"
        }
      ],
      "stateMutability": "view",
      "type": "function"
    },
    {
      "inputs": [
        {
          "internalType": "address",
          "name": "from",
          "type": "address"
        },
        {
          "internalType": "address",
          "name": "to",
          "type": "address"
        },
        {
          "internalType": "uint256",
          "name": "tokenId",
          "type": "uint256"
        }
      ],
      "name": "safeTransferFrom",
      "outputs": [],
      "stateMutability": "nonpayable",
      "type": "function"
    },
    {
      "inputs": [
        {
          "internalType": "address",
          "name": "from",
          "type": "address"
        },
        {
          "internalType": "address",
          "name": "to",
          "type": "address"
        },
        {
          "internalType": "uint256",
          "name": "tokenId",
          "type": "uint256"
        },
        {
          "internalType": "bytes",
          "name": "data",
          "type": "bytes"
        }
      ],
      "name": "safeTransferFrom",
      "outputs": [],
      "stateMutability": "nonpayable",
      "type": "function"
    },
    {
      "inputs": [
        {
          "internalType": "address",
          "name": "operator",
          "type": "address"
        },
        {
          "internalType": "bool",
          "name": "approved",
          "type": "bool"
        }
      ],
      "name": "setApprovalForAll",
      "outputs": [],
      "stateMutability": "nonpayable",
      "type": "function"
    },
    {
      "inputs": [
        {
          "internalType": "string",
          "name": "_newBaseExtension",
          "type": "string"
        }
      ],
      "name": "setBaseExtension",
      "outputs": [],
      "stateMutability": "nonpayable",
      "type": "function"
    },
    {
      "inputs": [
        {
          "internalType": "string",
          "name": "_tokenBaseURI",
          "type": "string"
        }
      ],
      "name": "setBaseURI",
      "outputs": [],
      "stateMutability": "nonpayable",
      "type": "function"
    },
    {
      "inputs": [
        {
          "internalType": "bytes32",
          "name": "merkleroot",
          "type": "bytes32"
        }
      ],
      "name": "setMerkleRoot",
      "outputs": [],
      "stateMutability": "nonpayable",
      "type": "function"
    },
    {
      "inputs": [
        {
          "internalType": "string",
          "name": "_notRevealedURIBase",
          "type": "string"
        }
      ],
      "name": "setNotRevealedURIBase",
      "outputs": [],
      "stateMutability": "nonpayable",
      "type": "function"
    },
    {
      "inputs": [
        {
          "internalType": "address",
          "name": "account",
          "type": "address"
        }
      ],
      "name": "shares",
      "outputs": [
        {
          "internalType": "uint256",
          "name": "",
          "type": "uint256"
        }
      ],
      "stateMutability": "view",
      "type": "function"
    },
    {
      "inputs": [
        {
          "internalType": "bytes4",
          "name": "interfaceId",
          "type": "bytes4"
        }
      ],
      "name": "supportsInterface",
      "outputs": [
        {
          "internalType": "bool",
          "name": "",
          "type": "bool"
        }
      ],
      "stateMutability": "view",
      "type": "function"
    },
    {
      "inputs": [],
      "name": "symbol",
      "outputs": [
        {
          "internalType": "string",
          "name": "",
          "type": "string"
        }
      ],
      "stateMutability": "view",
      "type": "function"
    },
    {
      "inputs": [],
      "name": "togglePause",
      "outputs": [],
      "stateMutability": "nonpayable",
      "type": "function"
    },
    {
      "inputs": [],
      "name": "togglePresale",
      "outputs": [],
      "stateMutability": "nonpayable",
      "type": "function"
    },
    {
      "inputs": [],
      "name": "togglePublicSale",
      "outputs": [],
      "stateMutability": "nonpayable",
      "type": "function"
    },
    {
      "inputs": [
        {
          "internalType": "uint256",
          "name": "tokenId",
          "type": "uint256"
        }
      ],
      "name": "tokenURI",
      "outputs": [
        {
          "internalType": "string",
          "name": "",
          "type": "string"
        }
      ],
      "stateMutability": "view",
      "type": "function"
    },
    {
      "inputs": [
        {
          "internalType": "contract IERC20",
          "name": "token",
          "type": "address"
        }
      ],
      "name": "totalReleased",
      "outputs": [
        {
          "internalType": "uint256",
          "name": "",
          "type": "uint256"
        }
      ],
      "stateMutability": "view",
      "type": "function"
    },
    {
      "inputs": [],
      "name": "totalReleased",
      "outputs": [
        {
          "internalType": "uint256",
          "name": "",
          "type": "uint256"
        }
      ],
      "stateMutability": "view",
      "type": "function"
    },
    {
      "inputs": [],
      "name": "totalShares",
      "outputs": [
        {
          "internalType": "uint256",
          "name": "",
          "type": "uint256"
        }
      ],
      "stateMutability": "view",
      "type": "function"
    },
    {
      "inputs": [],
      "name": "totalSupply",
      "outputs": [
        {
          "internalType": "uint256",
          "name": "",
          "type": "uint256"
        }
      ],
      "stateMutability": "view",
      "type": "function"
    },
    {
      "inputs": [
        {
          "internalType": "address",
          "name": "from",
          "type": "address"
        },
        {
          "internalType": "address",
          "name": "to",
          "type": "address"
        },
        {
          "internalType": "uint256",
          "name": "tokenId",
          "type": "uint256"
        }
      ],
      "name": "transferFrom",
      "outputs": [],
      "stateMutability": "nonpayable",
      "type": "function"
    },
    {
      "inputs": [
        {
          "internalType": "address",
          "name": "newOwner",
          "type": "address"
        }
      ],
      "name": "transferOwnership",
      "outputs": [],
      "stateMutability": "nonpayable",
      "type": "function"
    },
    {
      "stateMutability": "payable",
      "type": "receive"
    }
  ],
  "bytecode": "0x610fa0601155609660125560e0604052603660808181529062003e9e60a039805162000034916014916020909101906200069f565b5060408051808201909152600580825264173539b7b760d91b602090920191825262000063916015916200069f565b506016805463ffffffff1916905560026017819055600a601855667c585087238000601a5566f8b0a10e470000601b556040805180820190915260328082526020820152620000b691601d91906200072e565b5060408051808201909152739781354709a3e0d7bc3c0073ead4c3900eea8649815273e1332d37221e9b806cc41e5ddc581563ef59e46960208201526200010290601e90600262000771565b503480156200011057600080fd5b5060405162003ed438038062003ed4833981016040819052620001339162000813565b601e8054806020026020016040519081016040528092919081815260200182805480156200018b57602002820191906000526020600020905b81546001600160a01b031681526001909101906020018083116200016c575b5050505050601d805480602002602001604051908101604052809291908181526020018280548015620001de57602002820191906000526020600020905b815481526020019060010190808311620001c9575b505060408051808201825260128152714d6574614a65747a53706172726f7739373760701b6020808301918252835180850190945260038452624d533960e81b9084015281519195509193506200023a9250600091906200069f565b508051620002509060019060208401906200069f565b5050506200026d62000267620003da60201b60201c565b620003de565b60016007558051825114620002e45760405162461bcd60e51b815260206004820152603260248201527f5061796d656e7453706c69747465723a2070617965657320616e6420736861726044820152710cae640d8cadccee8d040dad2e6dac2e8c6d60731b60648201526084015b60405180910390fd5b6000825111620003375760405162461bcd60e51b815260206004820152601a60248201527f5061796d656e7453706c69747465723a206e6f207061796565730000000000006044820152606401620002db565b60005b8251811015620003a3576200038e8382815181106200035d576200035d6200090e565b60200260200101518383815181106200037a576200037a6200090e565b60200260200101516200043060201b60201c565b806200039a816200093a565b9150506200033a565b505050600f829055601080546001600160a01b0319166001600160a01b038316179055620003d1836200061e565b505050620009b0565b3390565b600680546001600160a01b038381166001600160a01b0319831681179093556040519116919082907f8be0079c531659141344cd1fd0a4f28419497f9722a3daafe3b4186f6b6457e090600090a35050565b6001600160a01b0382166200049d5760405162461bcd60e51b815260206004820152602c60248201527f5061796d656e7453706c69747465723a206163636f756e74206973207468652060448201526b7a65726f206164647265737360a01b6064820152608401620002db565b60008111620004ef5760405162461bcd60e51b815260206004820152601d60248201527f5061796d656e7453706c69747465723a207368617265732061726520300000006044820152606401620002db565b6001600160a01b0382166000908152600a6020526040902054156200056b5760405162461bcd60e51b815260206004820152602b60248201527f5061796d656e7453706c69747465723a206163636f756e7420616c726561647960448201526a206861732073686172657360a81b6064820152608401620002db565b600c8054600181019091557fdf6966c971051c3d54ec59162606531493a51404a002842f56009d7e5cf4a8c70180546001600160a01b0319166001600160a01b0384169081179091556000908152600a60205260409020819055600854620005d590829062000958565b600855604080516001600160a01b0384168152602081018390527f40c340f65e17194d14ddddb073d3c9f888e3cb52b5aae0c6c7706b4fbc905fac910160405180910390a15050565b6200062862000641565b80516200063d9060139060208401906200069f565b5050565b6006546001600160a01b031633146200069d5760405162461bcd60e51b815260206004820181905260248201527f4f776e61626c653a2063616c6c6572206973206e6f7420746865206f776e65726044820152606401620002db565b565b828054620006ad9062000973565b90600052602060002090601f016020900481019282620006d157600085556200071c565b82601f10620006ec57805160ff19168380011785556200071c565b828001600101855582156200071c579182015b828111156200071c578251825591602001919060010190620006ff565b506200072a929150620007c9565b5090565b8280548282559060005260206000209081019282156200071c579160200282015b828111156200071c578251829060ff169055916020019190600101906200074f565b8280548282559060005260206000209081019282156200071c579160200282015b828111156200071c57825182546001600160a01b0319166001600160a01b0390911617825560209092019160019091019062000792565b5b808211156200072a5760008155600101620007ca565b634e487b7160e01b600052604160045260246000fd5b80516001600160a01b03811681146200080e57600080fd5b919050565b6000806000606084860312156200082957600080fd5b83516001600160401b03808211156200084157600080fd5b818601915086601f8301126200085657600080fd5b8151818111156200086b576200086b620007e0565b604051601f8201601f19908116603f01168101908382118183101715620008965762000896620007e0565b81604052828152602093508984848701011115620008b357600080fd5b600091505b82821015620008d75784820184015181830185015290830190620008b8565b82821115620008e95760008484830101525b80975050505080860151935050506200090560408501620007f6565b90509250925092565b634e487b7160e01b600052603260045260246000fd5b634e487b7160e01b600052601160045260246000fd5b600060001982141562000951576200095162000924565b5060010190565b600082198211156200096e576200096e62000924565b500190565b600181811c908216806200098857607f821691505b60208210811415620009aa57634e487b7160e01b600052602260045260246000fd5b50919050565b6134de80620009c06000396000f3fe6080604052600436106103905760003560e01c806371771e5e116101dc578063b88d4fde11610102578063d79779b2116100a0578063e985e9c51161006f578063e985e9c514610a8d578063ebf0c71714610aad578063ef12b69714610ac3578063f2fde38b14610ad957600080fd5b8063d79779b214610a0d578063da3ef23f14610a43578063e222c7f914610a63578063e33b7de314610a7857600080fd5b8063c6682862116100dc578063c66828621461098c578063c87b56dd146109a1578063ce7c2ac2146109c1578063d5abeb01146109f757600080fd5b8063b88d4fde14610937578063c45ac05014610957578063c4ae31681461097757600080fd5b806395d89b411161017a578063a45063c011610149578063a45063c0146108ce578063a475b5dd146108ef578063b3ab66b014610904578063b85a4bfb1461091757600080fd5b806395d89b41146108435780639852595c14610858578063a22cb4651461088e578063a3f8eace146108ae57600080fd5b80638cc4de19116101b65780638cc4de19146107cf5780638d8fd771146107fc5780638da5cb5b14610812578063954dc3e31461083057600080fd5b806371771e5e146107795780637cb647591461078f5780638b83209b146107af57600080fd5b80633a98ef39116102c157806351bdfccf1161025f5780636352211e1161022e5780636352211e1461070f5780636c0360eb1461072f57806370a0823114610744578063715018a61461076457600080fd5b806351bdfccf146106a057806355f804b3146106b55780635c975abb146106d55780635c97f03d146106ef57600080fd5b806342842e0e1161029b57806342842e0e1461062157806348b75044146106415780634fda728514610661578063518302271461068157600080fd5b80633a98ef39146105b05780633fa658db146105c5578063406072a9146105db57600080fd5b8063190e20f51161032e5780631f114b63116103085780631f114b631461054857806323b872dd1461056857806333f88d2214610588578063343937431461059b57600080fd5b8063190e20f5146104f2578063191655871461050857806319bb20221461052857600080fd5b8063081812fc1161036a578063081812fc14610457578063095ea7b31461048f5780631798d58b146104af57806318160ddd146104cf57600080fd5b806301ffc9a7146103de578063064f0db41461041357806306fdde031461043557600080fd5b366103d9577f6ef95f06320e7a25a04a175ca677b7052bdd97131872c2192525a629f51be77033604080516001600160a01b0390921682523460208301520160405180910390a1005b600080fd5b3480156103ea57600080fd5b506103fe6103f9366004612b1d565b610af9565b60405190151581526020015b60405180910390f35b34801561041f57600080fd5b5061043361042e366004612b3a565b610b4b565b005b34801561044157600080fd5b5061044a610b58565b60405161040a9190612bab565b34801561046357600080fd5b50610477610472366004612b3a565b610bea565b6040516001600160a01b03909116815260200161040a565b34801561049b57600080fd5b506104336104aa366004612bd3565b610c11565b3480156104bb57600080fd5b506016546103fe9062010000900460ff1681565b3480156104db57600080fd5b506104e4610d2c565b60405190815260200161040a565b3480156104fe57600080fd5b506104e4601a5481565b34801561051457600080fd5b50610433610523366004612bff565b610d3c565b34801561053457600080fd5b50610433610543366004612b3a565b610e20565b34801561055457600080fd5b50610433610563366004612b3a565b610e2d565b34801561057457600080fd5b50610433610583366004612c1c565b610e3a565b610433610596366004612b3a565b610e6b565b3480156105a757600080fd5b50610433610ef4565b3480156105bc57600080fd5b506008546104e4565b3480156105d157600080fd5b506104e4601b5481565b3480156105e757600080fd5b506104e46105f6366004612c5d565b6001600160a01b039182166000908152600e6020908152604080832093909416825291909152205490565b34801561062d57600080fd5b5061043361063c366004612c1c565b610f1b565b34801561064d57600080fd5b5061043361065c366004612c5d565b610f36565b34801561066d57600080fd5b5061043361067c366004612b3a565b611044565b34801561068d57600080fd5b506016546103fe90610100900460ff1681565b3480156106ac57600080fd5b5061044a611051565b3480156106c157600080fd5b506104336106d0366004612d22565b6110df565b3480156106e157600080fd5b506016546103fe9060ff1681565b3480156106fb57600080fd5b5061043361070a366004612d22565b6110fe565b34801561071b57600080fd5b5061047761072a366004612b3a565b611119565b34801561073b57600080fd5b5061044a611179565b34801561075057600080fd5b506104e461075f366004612bff565b611186565b34801561077057600080fd5b5061043361120c565b34801561078557600080fd5b506104e460125481565b34801561079b57600080fd5b506104336107aa366004612b3a565b611220565b3480156107bb57600080fd5b506104776107ca366004612b3a565b61122d565b3480156107db57600080fd5b506104e46107ea366004612bff565b60196020526000908152604090205481565b34801561080857600080fd5b506104e460185481565b34801561081e57600080fd5b506006546001600160a01b0316610477565b61043361083e366004612d6b565b61125d565b34801561084f57600080fd5b5061044a611563565b34801561086457600080fd5b506104e4610873366004612bff565b6001600160a01b03166000908152600b602052604090205490565b34801561089a57600080fd5b506104336108a9366004612e05565b611572565b3480156108ba57600080fd5b506104e46108c9366004612bff565b61157d565b3480156108da57600080fd5b506016546103fe906301000000900460ff1681565b3480156108fb57600080fd5b506104336115c5565b610433610912366004612b3a565b6115de565b34801561092357600080fd5b50610433610932366004612b3a565b61181a565b34801561094357600080fd5b50610433610952366004612e33565b611827565b34801561096357600080fd5b506104e4610972366004612c5d565b61185f565b34801561098357600080fd5b50610433611939565b34801561099857600080fd5b5061044a611955565b3480156109ad57600080fd5b5061044a6109bc366004612b3a565b611962565b3480156109cd57600080fd5b506104e46109dc366004612bff565b6001600160a01b03166000908152600a602052604090205490565b348015610a0357600080fd5b506104e460115481565b348015610a1957600080fd5b506104e4610a28366004612bff565b6001600160a01b03166000908152600d602052604090205490565b348015610a4f57600080fd5b50610433610a5e366004612d22565b611a83565b348015610a6f57600080fd5b50610433611a9e565b348015610a8457600080fd5b506009546104e4565b348015610a9957600080fd5b506103fe610aa8366004612c5d565b611ac7565b348015610ab957600080fd5b506104e4600f5481565b348015610acf57600080fd5b506104e460175481565b348015610ae557600080fd5b50610433610af4366004612bff565b611b93565b60006001600160e01b031982166380ac58cd60e01b1480610b2a57506001600160e01b03198216635b5e139f60e01b145b80610b4557506301ffc9a760e01b6001600160e01b03198316145b92915050565b610b53611c0c565b601255565b606060008054610b6790612eb3565b80601f0160208091040260200160405190810160405280929190818152602001828054610b9390612eb3565b8015610be05780601f10610bb557610100808354040283529160200191610be0565b820191906000526020600020905b815481529060010190602001808311610bc357829003601f168201915b5050505050905090565b6000610bf582611c66565b506000908152600460205260409020546001600160a01b031690565b6000610c1c82611119565b9050806001600160a01b0316836001600160a01b03161415610c8f5760405162461bcd60e51b815260206004820152602160248201527f4552433732313a20617070726f76616c20746f2063757272656e74206f776e656044820152603960f91b60648201526084015b60405180910390fd5b336001600160a01b0382161480610cab5750610cab8133611ac7565b610d1d5760405162461bcd60e51b815260206004820152603d60248201527f4552433732313a20617070726f76652063616c6c6572206973206e6f7420746f60448201527f6b656e206f776e6572206f7220617070726f76656420666f7220616c6c0000006064820152608401610c86565b610d278383611cc5565b505050565b6000610d37601c5490565b905090565b6001600160a01b0381166000908152600a6020526040902054610d715760405162461bcd60e51b8152600401610c8690612eee565b6000610d7c8261157d565b905080610d9b5760405162461bcd60e51b8152600401610c8690612f34565b8060096000828254610dad9190612f95565b90915550506001600160a01b0382166000908152600b60205260409020805482019055610dda8282611d33565b604080516001600160a01b0384168152602081018390527fdf20fd1e76bc69d672e4814fafb2c449bba3a5369d8359adf9e05e6fde87b056910160405180910390a15050565b610e28611c0c565b601855565b610e35611c0c565b601755565b610e443382611e4c565b610e605760405162461bcd60e51b8152600401610c8690612fad565b610d27838383611eaa565b610e73611c0c565b60165460ff1615610e965760405162461bcd60e51b8152600401610c8690612ffa565b6000610ea1601c5490565b601154909150610eb18383612f95565b1115610ecf5760405162461bcd60e51b8152600401610c8690613042565b60005b82811015610d2757610ee261201b565b80610eec816130d7565b915050610ed2565b610efc611c0c565b6016805462ff0000198116620100009182900460ff1615909102179055565b610d2783838360405180602001604052806000815250611827565b6001600160a01b0381166000908152600a6020526040902054610f6b5760405162461bcd60e51b8152600401610c8690612eee565b6000610f77838361185f565b905080610f965760405162461bcd60e51b8152600401610c8690612f34565b6001600160a01b0383166000908152600d602052604081208054839290610fbe908490612f95565b90915550506001600160a01b038084166000908152600e60209081526040808320938616835292905220805482019055610ff9838383612053565b604080516001600160a01b038481168252602082018490528516917f3be5b7a71e84ed12875d241991c70855ac5817d847039e17a9d895c1ceb0f18a910160405180910390a2505050565b61104c611c0c565b601b55565b6014805461105e90612eb3565b80601f016020809104026020016040519081016040528092919081815260200182805461108a90612eb3565b80156110d75780601f106110ac576101008083540402835291602001916110d7565b820191906000526020600020905b8154815290600101906020018083116110ba57829003601f168201915b505050505081565b6110e7611c0c565b80516110fa906013906020840190612a6e565b5050565b611106611c0c565b80516110fa906014906020840190612a6e565b6000818152600260205260408120546001600160a01b031680610b455760405162461bcd60e51b8152602060048201526018602482015277115490cdcc8c4e881a5b9d985b1a59081d1bdad95b88125160421b6044820152606401610c86565b6013805461105e90612eb3565b60006001600160a01b0382166111f05760405162461bcd60e51b815260206004820152602960248201527f4552433732313a2061646472657373207a65726f206973206e6f7420612076616044820152683634b21037bbb732b960b91b6064820152608401610c86565b506001600160a01b031660009081526003602052604090205490565b611214611c0c565b61121e60006120a5565b565b611228611c0c565b600f55565b6000600c8281548110611242576112426130f2565b6000918252602090912001546001600160a01b031692915050565b81816112d482828080602002602001604051908101604052809392919081815260200183836020028082843760009201919091525050600f546040516bffffffffffffffffffffffff193360601b1660208201529092506034019050604051602081830303815290604052805190602001206120f7565b15156001146112f55760405162461bcd60e51b8152600401610c8690613108565b3332146113145760405162461bcd60e51b8152600401610c8690613108565b336001600160a01b038716146113765760405162461bcd60e51b815260206004820152602160248201527f4d6574614a65747a2053706172726f77203937373a204e6f7420616c6c6f77656044820152601960fa1b6064820152608401610c86565b60165462010000900460ff166113da5760405162461bcd60e51b8152602060048201526024808201527f4d6574614a65747a2053706172726f77203937373a2050726573616c652069736044820152631027a32360e11b6064820152608401610c86565b60165460ff16156113fd5760405162461bcd60e51b8152600401610c8690612ffa565b60175485111561141f5760405162461bcd60e51b8152600401610c8690613134565b6017543360009081526019602052604090205461143d908790612f95565b111561145b5760405162461bcd60e51b8152600401610c8690613134565b6000611466601c5490565b9050601254601154611478919061319c565b6114828783612f95565b11156114e25760405162461bcd60e51b815260206004820152602960248201527f4d6574614a65747a2053706172726f77203937373a206d617820737570706c7960448201526808195e18d95959195960ba1b6064820152608401610c86565b3486601a546114f191906131b3565b111561150f5760405162461bcd60e51b8152600401610c869061308b565b336000908152601960205260408120805488929061152e908490612f95565b90915550600090505b868110156115595761154761201b565b80611551816130d7565b915050611537565b5050505050505050565b606060018054610b6790612eb3565b6110fa33838361210d565b60008061158960095490565b6115939047612f95565b90506115be83826115b9866001600160a01b03166000908152600b602052604090205490565b6121dc565b9392505050565b6115cd611c0c565b6016805461ff001916610100179055565b3332146115fd5760405162461bcd60e51b8152600401610c8690613108565b6016546301000000900460ff166116675760405162461bcd60e51b815260206004820152602860248201527f4d6574614a65747a2053706172726f77203937373a205075626c69632053616c604482015267329034b99027a32360c11b6064820152608401610c86565b60165460ff16156116cb5760405162461bcd60e51b815260206004820152602860248201527f4d6574614a65747a2053706172726f77203937373a20436f6e747261637420696044820152671cc814185d5cd95960c21b6064820152608401610c86565b600081116117255760405162461bcd60e51b815260206004820152602160248201527f4d6574614a65747a2053706172726f77203937373a207a65726f20616d6f756e6044820152601d60fa1b6064820152608401610c86565b6000611730601c5490565b90506018548211156117545760405162461bcd60e51b8152600401610c86906131d2565b60185433600090815260196020526040902054611772908490612f95565b11156117905760405162461bcd60e51b8152600401610c86906131d2565b6012546011546117a0919061319c565b6117aa8383612f95565b11156117c85760405162461bcd60e51b8152600401610c8690613042565b3482601b546117d791906131b3565b11156117f55760405162461bcd60e51b8152600401610c869061308b565b60005b82811015610d275761180861201b565b80611812816130d7565b9150506117f8565b611822611c0c565b601a55565b6118313383611e4c565b61184d5760405162461bcd60e51b8152600401610c8690612fad565b6118598484848461221a565b50505050565b6001600160a01b0382166000908152600d602052604081205481906040516370a0823160e01b81523060048201526001600160a01b038616906370a082319060240160206040518083038186803b1580156118b957600080fd5b505afa1580156118cd573d6000803e3d6000fd5b505050506040513d601f19601f820116820180604052508101906118f1919061323e565b6118fb9190612f95565b6001600160a01b038086166000908152600e602090815260408083209388168352929052205490915061193190849083906121dc565b949350505050565b611941611c0c565b6016805460ff19811660ff90911615179055565b6015805461105e90612eb3565b6000818152600260205260409020546060906001600160a01b03166119e15760405162461bcd60e51b815260206004820152602f60248201527f4552433732314d657461646174613a2055524920717565727920666f72206e6f60448201526e3732bc34b9ba32b73a103a37b5b2b760891b6064820152608401610c86565b601654610100900460ff16611a255760146119fb8361224d565b6015604051602001611a0f939291906132f1565b6040516020818303038152906040529050919050565b6000611a2f6122ea565b90506000815111611a4f57604051806020016040528060008152506115be565b80611a598461224d565b6015604051602001611a6d93929190613319565b6040516020818303038152906040529392505050565b611a8b611c0c565b80516110fa906015906020840190612a6e565b611aa6611c0c565b6016805463ff00000019811663010000009182900460ff1615909102179055565b60105460405163c455279160e01b81526001600160a01b03848116600483015260009281169190841690829063c45527919060240160206040518083038186803b158015611b1457600080fd5b505afa158015611b28573d6000803e3d6000fd5b505050506040513d601f19601f82011682018060405250810190611b4c919061333f565b6001600160a01b03161415611b65576001915050610b45565b6001600160a01b0380851660009081526005602090815260408083209387168352929052205460ff16611931565b611b9b611c0c565b6001600160a01b038116611c005760405162461bcd60e51b815260206004820152602660248201527f4f776e61626c653a206e6577206f776e657220697320746865207a65726f206160448201526564647265737360d01b6064820152608401610c86565b611c09816120a5565b50565b6006546001600160a01b0316331461121e5760405162461bcd60e51b815260206004820181905260248201527f4f776e61626c653a2063616c6c6572206973206e6f7420746865206f776e65726044820152606401610c86565b6000818152600260205260409020546001600160a01b0316611c095760405162461bcd60e51b8152602060048201526018602482015277115490cdcc8c4e881a5b9d985b1a59081d1bdad95b88125160421b6044820152606401610c86565b600081815260046020526040902080546001600160a01b0319166001600160a01b0384169081179091558190611cfa82611119565b6001600160a01b03167f8c5be1e5ebec7d5bd14f71427d1e84f3dd0314c0f7b2291e5b200ac8c7c3b92560405160405180910390a45050565b80471015611d835760405162461bcd60e51b815260206004820152601d60248201527f416464726573733a20696e73756666696369656e742062616c616e63650000006044820152606401610c86565b6000826001600160a01b03168260405160006040518083038185875af1925050503d8060008114611dd0576040519150601f19603f3d011682016040523d82523d6000602084013e611dd5565b606091505b5050905080610d275760405162461bcd60e51b815260206004820152603a60248201527f416464726573733a20756e61626c6520746f2073656e642076616c75652c207260448201527f6563697069656e74206d617920686176652072657665727465640000000000006064820152608401610c86565b600080611e5883611119565b9050806001600160a01b0316846001600160a01b03161480611e7f5750611e7f8185611ac7565b806119315750836001600160a01b0316611e9884610bea565b6001600160a01b031614949350505050565b826001600160a01b0316611ebd82611119565b6001600160a01b031614611ee35760405162461bcd60e51b8152600401610c869061335c565b6001600160a01b038216611f455760405162461bcd60e51b8152602060048201526024808201527f4552433732313a207472616e7366657220746f20746865207a65726f206164646044820152637265737360e01b6064820152608401610c86565b611f5283838360016122f9565b826001600160a01b0316611f6582611119565b6001600160a01b031614611f8b5760405162461bcd60e51b8152600401610c869061335c565b600081815260046020908152604080832080546001600160a01b03199081169091556001600160a01b0387811680865260038552838620805460001901905590871680865283862080546001019055868652600290945282852080549092168417909155905184937fddf252ad1be2c89b69c2b068fc378daa952ba7f163c4a11628f55a4df523b3ef91a4505050565b612023612381565b612031601c80546001019055565b600061203c601c5490565b905061204833826123db565b5061121e6001600755565b604080516001600160a01b038416602482015260448082018490528251808303909101815260649091019091526020810180516001600160e01b031663a9059cbb60e01b179052610d279084906123f5565b600680546001600160a01b038381166001600160a01b0319831681179093556040519116919082907f8be0079c531659141344cd1fd0a4f28419497f9722a3daafe3b4186f6b6457e090600090a35050565b60008261210485846124c7565b14949350505050565b816001600160a01b0316836001600160a01b0316141561216f5760405162461bcd60e51b815260206004820152601960248201527f4552433732313a20617070726f766520746f2063616c6c6572000000000000006044820152606401610c86565b6001600160a01b03838116600081815260056020908152604080832094871680845294825291829020805460ff191686151590811790915591519182527f17307eab39ab6107e8899845ad3d59bd9653f200f220920489ca2b5937696c31910160405180910390a3505050565b6008546001600160a01b0384166000908152600a60205260408120549091839161220690866131b3565b61221091906133a1565b611931919061319c565b612225848484611eaa565b6122318484848461250c565b6118595760405162461bcd60e51b8152600401610c86906133c3565b6060600061225a83612619565b600101905060008167ffffffffffffffff81111561227a5761227a612c96565b6040519080825280601f01601f1916602001820160405280156122a4576020820181803683370190505b5090508181016020015b600019016f181899199a1a9b1b9c1cb0b131b232b360811b600a86061a8153600a85049450846122dd576122e2565b6122ae565b509392505050565b606060138054610b6790612eb3565b6001811115611859576001600160a01b0384161561233f576001600160a01b0384166000908152600360205260408120805483929061233990849061319c565b90915550505b6001600160a01b03831615611859576001600160a01b03831660009081526003602052604081208054839290612376908490612f95565b909155505050505050565b600260075414156123d45760405162461bcd60e51b815260206004820152601f60248201527f5265656e7472616e637947756172643a207265656e7472616e742063616c6c006044820152606401610c86565b6002600755565b6110fa8282604051806020016040528060008152506126f1565b600061244a826040518060400160405280602081526020017f5361666545524332303a206c6f772d6c6576656c2063616c6c206661696c6564815250856001600160a01b03166127249092919063ffffffff16565b805190915015610d2757808060200190518101906124689190613415565b610d275760405162461bcd60e51b815260206004820152602a60248201527f5361666545524332303a204552433230206f7065726174696f6e20646964206e6044820152691bdd081cdd58d8d9595960b21b6064820152608401610c86565b600081815b84518110156122e2576124f8828683815181106124eb576124eb6130f2565b6020026020010151612733565b915080612504816130d7565b9150506124cc565b60006001600160a01b0384163b1561260e57604051630a85bd0160e11b81526001600160a01b0385169063150b7a0290612550903390899088908890600401613432565b602060405180830381600087803b15801561256a57600080fd5b505af192505050801561259a575060408051601f3d908101601f191682019092526125979181019061346f565b60015b6125f4573d8080156125c8576040519150601f19603f3d011682016040523d82523d6000602084013e6125cd565b606091505b5080516125ec5760405162461bcd60e51b8152600401610c86906133c3565b805181602001fd5b6001600160e01b031916630a85bd0160e11b149050611931565b506001949350505050565b60008072184f03e93ff9f4daa797ed6e38ed64bf6a1f0160401b83106126585772184f03e93ff9f4daa797ed6e38ed64bf6a1f0160401b830492506040015b6d04ee2d6d415b85acef81000000008310612684576d04ee2d6d415b85acef8100000000830492506020015b662386f26fc1000083106126a257662386f26fc10000830492506010015b6305f5e10083106126ba576305f5e100830492506008015b61271083106126ce57612710830492506004015b606483106126e0576064830492506002015b600a8310610b455760010192915050565b6126fb838361275f565b612708600084848461250c565b610d275760405162461bcd60e51b8152600401610c86906133c3565b606061193184846000856128f8565b600081831061274f5760008281526020849052604090206115be565b5060009182526020526040902090565b6001600160a01b0382166127b55760405162461bcd60e51b815260206004820181905260248201527f4552433732313a206d696e7420746f20746865207a65726f20616464726573736044820152606401610c86565b6000818152600260205260409020546001600160a01b03161561281a5760405162461bcd60e51b815260206004820152601c60248201527f4552433732313a20746f6b656e20616c7265616479206d696e746564000000006044820152606401610c86565b6128286000838360016122f9565b6000818152600260205260409020546001600160a01b03161561288d5760405162461bcd60e51b815260206004820152601c60248201527f4552433732313a20746f6b656e20616c7265616479206d696e746564000000006044820152606401610c86565b6001600160a01b038216600081815260036020908152604080832080546001019055848352600290915280822080546001600160a01b0319168417905551839291907fddf252ad1be2c89b69c2b068fc378daa952ba7f163c4a11628f55a4df523b3ef908290a45050565b6060824710156129595760405162461bcd60e51b815260206004820152602660248201527f416464726573733a20696e73756666696369656e742062616c616e636520666f6044820152651c8818d85b1b60d21b6064820152608401610c86565b600080866001600160a01b03168587604051612975919061348c565b60006040518083038185875af1925050503d80600081146129b2576040519150601f19603f3d011682016040523d82523d6000602084013e6129b7565b606091505b50915091506129c8878383876129d3565b979650505050505050565b60608315612a3f578251612a38576001600160a01b0385163b612a385760405162461bcd60e51b815260206004820152601d60248201527f416464726573733a2063616c6c20746f206e6f6e2d636f6e74726163740000006044820152606401610c86565b5081611931565b6119318383815115612a545781518083602001fd5b8060405162461bcd60e51b8152600401610c869190612bab565b828054612a7a90612eb3565b90600052602060002090601f016020900481019282612a9c5760008555612ae2565b82601f10612ab557805160ff1916838001178555612ae2565b82800160010185558215612ae2579182015b82811115612ae2578251825591602001919060010190612ac7565b50612aee929150612af2565b5090565b5b80821115612aee5760008155600101612af3565b6001600160e01b031981168114611c0957600080fd5b600060208284031215612b2f57600080fd5b81356115be81612b07565b600060208284031215612b4c57600080fd5b5035919050565b60005b83811015612b6e578181015183820152602001612b56565b838111156118595750506000910152565b60008151808452612b97816020860160208601612b53565b601f01601f19169290920160200192915050565b6020815260006115be6020830184612b7f565b6001600160a01b0381168114611c0957600080fd5b60008060408385031215612be657600080fd5b8235612bf181612bbe565b946020939093013593505050565b600060208284031215612c1157600080fd5b81356115be81612bbe565b600080600060608486031215612c3157600080fd5b8335612c3c81612bbe565b92506020840135612c4c81612bbe565b929592945050506040919091013590565b60008060408385031215612c7057600080fd5b8235612c7b81612bbe565b91506020830135612c8b81612bbe565b809150509250929050565b634e487b7160e01b600052604160045260246000fd5b600067ffffffffffffffff80841115612cc757612cc7612c96565b604051601f8501601f19908116603f01168101908282118183101715612cef57612cef612c96565b81604052809350858152868686011115612d0857600080fd5b858560208301376000602087830101525050509392505050565b600060208284031215612d3457600080fd5b813567ffffffffffffffff811115612d4b57600080fd5b8201601f81018413612d5c57600080fd5b61193184823560208401612cac565b60008060008060608587031215612d8157600080fd5b8435612d8c81612bbe565b935060208501359250604085013567ffffffffffffffff80821115612db057600080fd5b818701915087601f830112612dc457600080fd5b813581811115612dd357600080fd5b8860208260051b8501011115612de857600080fd5b95989497505060200194505050565b8015158114611c0957600080fd5b60008060408385031215612e1857600080fd5b8235612e2381612bbe565b91506020830135612c8b81612df7565b60008060008060808587031215612e4957600080fd5b8435612e5481612bbe565b93506020850135612e6481612bbe565b925060408501359150606085013567ffffffffffffffff811115612e8757600080fd5b8501601f81018713612e9857600080fd5b612ea787823560208401612cac565b91505092959194509250565b600181811c90821680612ec757607f821691505b60208210811415612ee857634e487b7160e01b600052602260045260246000fd5b50919050565b60208082526026908201527f5061796d656e7453706c69747465723a206163636f756e7420686173206e6f2060408201526573686172657360d01b606082015260800190565b6020808252602b908201527f5061796d656e7453706c69747465723a206163636f756e74206973206e6f742060408201526a191d59481c185e5b595b9d60aa1b606082015260800190565b634e487b7160e01b600052601160045260246000fd5b60008219821115612fa857612fa8612f7f565b500190565b6020808252602d908201527f4552433732313a2063616c6c6572206973206e6f7420746f6b656e206f776e6560408201526c1c881bdc88185c1c1c9bdd9959609a1b606082015260800190565b60208082526028908201527f4d6574614a65747a2053706172726f77203937373a20436f6e747261637420696040820152671cc81c185d5cd95960c21b606082015260800190565b60208082526029908201527f4d6574614a65747a2053706172726f77203937373a204d617820737570706c7960408201526808195e18d95959195960ba1b606082015260800190565b6020808252602c908201527f4d6574614a65747a2053706172726f77203937373a204e6f7420656e6f75676860408201526b08195d1a195c9cc81cd95b9d60a21b606082015260800190565b60006000198214156130eb576130eb612f7f565b5060010190565b634e487b7160e01b600052603260045260246000fd5b6020808252601290820152712737ba1030b63637bbb2b21037b934b3b4b760711b604082015260600190565b60208082526042908201527f4d6574614a65747a2053706172726f77203937373a2050726573616c65206c6960408201527f6d6974206578636565646564207769746820616d6f756e742072657175657374606082015261195960f21b608082015260a00190565b6000828210156131ae576131ae612f7f565b500390565b60008160001904831182151516156131cd576131cd612f7f565b500290565b60208082526046908201527f4d6574614a65747a2053706172726f77203937373a205075626c69632073616c60408201527f65206c696d6974206578636565646564207769746820616d6f756e74207265716060820152651d595cdd195960d21b608082015260a00190565b60006020828403121561325057600080fd5b5051919050565b8054600090600181811c908083168061327157607f831692505b602080841082141561329357634e487b7160e01b600052602260045260246000fd5b8180156132a757600181146132b8576132e5565b60ff198616895284890196506132e5565b60008881526020902060005b868110156132dd5781548b8201529085019083016132c4565b505084890196505b50505050505092915050565b60006132fd8286613257565b845161330d818360208901612b53565b6129c881830186613257565b6000845161332b818460208901612b53565b84519083019061330d818360208901612b53565b60006020828403121561335157600080fd5b81516115be81612bbe565b60208082526025908201527f4552433732313a207472616e736665722066726f6d20696e636f72726563742060408201526437bbb732b960d91b606082015260800190565b6000826133be57634e487b7160e01b600052601260045260246000fd5b500490565b60208082526032908201527f4552433732313a207472616e7366657220746f206e6f6e20455243373231526560408201527131b2b4bb32b91034b6b83632b6b2b73a32b960711b606082015260800190565b60006020828403121561342757600080fd5b81516115be81612df7565b6001600160a01b038581168252841660208201526040810183905260806060820181905260009061346590830184612b7f565b9695505050505050565b60006020828403121561348157600080fd5b81516115be81612b07565b6000825161349e818460208701612b53565b919091019291505056fea264697066735822122079f5f8cd0ef86e8fae1116c62231d3c151e946b367a5072aa3f3596aad7dbc6d64736f6c63430008090033697066733a2f2f516d56733754595070485a5a32327970697238464d5a79546b76596969456550425641685747747665384b3868532f",
  "linkReferences": {},
  "deployedLinkReferences": {}
}